:020000040800F2
:10000000106A0024E10200087D4600086B430008E6
:10001000794600085F0E0008D9570008000000006C
:100020000000000000000000000000004D4C00082F
:10003000630E000800000000814600084F4C0008D5
:10004000FB020008FB020008FB020008FB0200089C
:10005000FB020008FB020008FB020008FB0200088C
:10006000FB020008FB020008FB020008FB0200087C
:10007000FB020008FB020008FB020008FB0200086C
:10008000FB020008FB020008FB020008FB0200085C
:10009000FB020008FB020008FB020008FB0200084C
:1000A000FB020008FB020008FB020008FB0200083C
:1000B000FB020008FB020008FB020008FB0200082C
:1000C000FB020008FB020008FB020008FB0200081C
:1000D000FB020008FB020008FB020008FB0200080C
:1000E000FB020008FB02000800000000FB02000801
:1000F000FB020008FB020008FB020008FB020008EC
:10010000FB0200084D490008FB020008FB02000842
:10011000FB020008FB020008FB020008FB020008CB
:10012000FB020008FB020008FB020008FB020008BB
:10013000FB020008FB020008FB020008FB020008AB
:1001400000000000000000000000000000000000AF
:10015000FB020008FB020008FB020008FB0200088B
:10016000FB020008FB020008FB020008FB0200087B
:10017000FB020008FB020008FB0200080000000070
:10018000FB020008FB020008FB020008FB0200085B
:10019000FB020008FB020008FB020008FB0200084B
:1001A000FB020008FB020008FB0200080000000040
:1001B000FB020008FB020008FB020008FB0200082B
:1001C000FB020008FB020008000000000000000025
:1001D0000000000000000000FB020008000000001A
:1001E000000000000000000000000000000000000F
:1001F0000000000000000000FB020008FB020008F5
:10020000FB020008FB02000800000000FB020008DF
:10021000FB020008FB020008FB020008FB020008CA
:10022000FB02000800000000FB02000800000000C4
:10023000FB020008FB02000800000000FB020008AF
:10024000FB020008FB020008FB020008FB0200089A
:10025000FB020008FB020008FB020008FB0200088A
:10026000FB020008FB020008FB020008FB0200087A
:10027000FB020008FB020008FB020008000000006F
:10028000FB020008FB020008FB020008FB0200085A
:1002900000000000FB020008FB0200080000000054
:1002A00000000000FB020008FB020008FB0200083F
:1002B000FB020008FB020008FB020008FB0200082A
:1002C000FB020008FB020008FB020008DFF80CD06C
:1002D00000F056FA0048004729650008106A00241B
:1002E0000648804706480047FEE7FEE7FEE7FEE7D0
:1002F000FEE7FEE7FEE7FEE7FEE7FEE7314D00081A
:10030000CD0200082DE9F05F0546002092469B468D
:1003100088460646814640241BE02846414647461B
:10032000224600F065F853465A46C01A914110D350
:1003300011461846224600F04CF82D1A67EB0108CA
:100340004F4622460120002100F043F817EB000938
:100350004E41201EA4F10104DFDC484631462A4606
:100360004346BDE8F09FD2B201E000F8012B491EE0
:10037000FBD270470022F6E710B513460A46044642
:100380001946FFF7F0FF204610BD10B5484304465C
:1003900006F076F9002805D00021002C02D0641E5A
:1003A0000155FAE710BD30B50B460146002020226A
:1003B000012409E021FA02F59D4205D303FA02F572
:1003C000491B04FA02F52844151EA2F10102F1DCD2
:1003D00030BD202A04DB203A00FA02F100207047E9
:1003E0009140C2F1200320FA03F319439040704773
:1003F000202A04DB203A21FA02F00021704721FA7A
:1004000002F3D040C2F120029140084319467047E0
:100410002DE9FE4F804681EA0300C00F0C46009094
:1004200021F0004123F00045B8EB0200A94105D2BC
:100430004046214690461C460B46024623F00040AB
:10044000104347D0270DC7F30A00C3F30A510290A7
:10045000401A019040286BDAC3F3130040F4801B6C
:100460000098924620B10023D2EB030A63EB0B0BFA
:1004700001985946C0F140025046FFF7AAFF0646D0
:100480000D4650465946019A00F08CF910EB0800D1
:100490006141002487EA115284EAE7731A4340D08D
:1004A000009A62B3019A012A4FEA075215DC001B39
:1004B00061EB02014FF0004202EA0752CDE900422F
:1004C000001C41F5801132462B4600F08CF903B038
:1004D000BDE8F08F40462146F9E7001B61EB0201C1
:1004E000001C41F5801300185B412018A2F500178D
:1004F00047EB030140EAD570B6196D4111E06D0874
:100500004FEA360645EAC0754FEA0752001B61EB19
:100510000201001C41F5801149084FEA3000001922
:10052000514132462B4603B0BDE8F04F00F04CB9C4
:100530000098012240000023D0EB020263EBE0733D
:10054000009821464FEAE074B8EB000061EB04012B
:10055000E9E783F000435BE781F0004158E72DE9CC
:10056000FE4F81EA030404F0004421F000410094AE
:100570004FF0000B23F0004350EA01045ED052EA32
:1005800003045BD0C3F30A54C1F30A552C44A4F20C
:10059000F3340194A0FB0254C1F3130141F4801120
:1005A000C3F3130343F4801301FB024400FB034E27
:1005B000840A970A44EA815447EA8357A4FB0768F0
:1005C00002958D0A05FB07854FEA932C04FB0C541A
:1005D0002705029D4FEA065847EA1637B5EB08058E
:1005E0006EEB070C870E920E47EA811742EA8312E0
:1005F000A7FB0201B6EB0B0164EB00042B0D43EAF1
:100600000C335E1844EB1C50DA465146E7FB0201FE
:10061000C5F313044FEA0B3343EA14534FEA043291
:10062000019C43EA0603A4F10C040294009CCDE96A
:1006300000B400F0D8F803B0BDE8F08F0020014608
:10064000F9E72DE9F04D81EA030404F0004B21F0B5
:10065000004514464FF0000A23F0004150EA05021D
:1006600020D054EA01021DD0C5F30A570246C5F353
:100670001303C1F31300C1F30A5640F4801543F489
:100680008013A7EB0608101BD64608F2FD3873EB63
:10069000050002D308F1010801E092185B41B8F1AE
:1006A000000F03DA00200146BDE8F08D00204FF472
:1006B0008011064684460EE0171B73EB050705D331
:1006C000121B63EB050306434CEA010C49084FEA91
:1006D000300092185B4150EA0107EDD152EA030065
:1006E00012D082EA040083EA0501084305D0101BFA
:1006F000AB4106D20122002306E000224FF0004366
:1007000002E06FF0010253101AEB06004CEB0851A7
:1007100010EB0A0041EB0B01BDE8F04D00F054B8BE
:10072000C1F30A52C1F3130140F2FF3341F48011C7
:100730009A4202DA00200146704740F233439A425F
:10074000A2F2334202DC5242FFF752BEFFF741BE33
:1007500030B5041E71F1000404DB4FF00044404248
:1007600064EB0101141E73F1000405DB1C464FF01D
:100770000043524263EB0403994208BF904230BDEC
:10078000064C074D06E0E06840F0010394E80700DE
:1007900098471034AC42F6D3FFF79CFDC4670008BD
:1007A000E4670008202A06DBCB17203A41FA02F062
:1007B00043EAE07306E041FA02F3D040C2F12002BE
:1007C000914008431946704710B5141E73F1000498
:1007D00008DA401C41F1000192185B411A4301D133
:1007E00020F0010010BD2DE9F04D92469B4611B15D
:1007F000B1FA81F202E0B0FA80F220329046FFF7BF
:10080000E8FD04460F4640EA0A0041EA0B01534660
:100810005A46084313D0114653EA010019D0C8F1D3
:1008200040025046FFF7E4FD05460E465046594645
:100830004246FFF7CEFD084305D0012004E02046E4
:100840003946BDE8F08D0020054346EAE0762C43AA
:1008500037430A986305E40AA0EB08000022FD0A6A
:1008600044EA47540A3002D500200146E9E7010571
:1008700010196941DDE9084500196941BDE8F04DED
:10088000A2E770B58C1810F8015B15F0070301D1D1
:1008900010F8013B2A1106D110F8012B03E010F8E3
:1008A000016B01F8016B5B1EF9D12B0705D4002306
:1008B000521E0DD401F8013BFAE710F8013BCB1AA8
:1008C000921C03E013F8015B01F8015B521EF9D59D
:1008D000A142D8D3002070BDB0B503880D88AB42CB
:1008E00056D145884C88A54252D11488A3424FD195
:1008F0005488A5424CD105FB03FC43680025496898
:10090000B5EB9C0F506831D04FEA9C02524200BFB9
:1009100093ED000A91ED001A30EE010A03F1100E7A
:1009200001F1100400F1100580ED000A013293ED91
:10093000010A91ED011A30EE010A80ED010A93EDF2
:10094000020A91ED021A30EE010A80ED020A93EDDF
:10095000030A91ED031A30EE010A7346214680ED39
:10096000030A2846D4D12146284673461CF00302C8
:100970000CD05242B3EC010AB1EC011A30EE010A7C
:10098000051D013280ED000A2846F3D1002000E069
:10099000FD2040B2B0BD018042804360704700003E
:1009A0002DE9F04F8BB0B0F800B0B0F802E0F3459D
:1009B00040F051810B88FD229B4540F04D814F88CE
:1009C000BB4240F04981BBF1000F436800F0298130
:1009D0006FF003004C6800EB8B08CDF81CE000279B
:1009E00000934FF07E5906945E462046BBEB06000E
:1009F00009D0B9002046FFF7BDFC00200130874236
:100A000004F10404FAD104F1040AC4F80090751E3C
:100A100010D0A8EB87015046FFF7ACFC01205446EC
:100A20000130864204F10404FAD1002D07F10107D8
:100A30002E46DBD1BBF1000F009BDDF81CE000F07F
:100A4000F0800420CDF814B000EB8E000190184621
:100A5000ABF1010603EB8E044FEA8E021D1DCEF1B1
:100A60000001002308919FED800A7746814600BF70
:100A70005B4580F0F58003FB0EF0B0EE403A09EBE9
:100A800080010A9191ED001A0699B0EE414A01EBFE
:100A9000800009902146304606E000BF91ED004AF3
:100AA0000138B0EE423A1144B5EEC04AF1EE10FA08
:100AB0000ADDB4EEC34AB0EE442AF1EE10FAD8BF14
:100AC000B0EE432A09E000BFB1EE442AB4EEC23AC8
:100AD000F1EE10FA01DBB0EE432A0028DED1B5EECC
:100AE000402AF1EE10FA00F0BB80B0EEC13AB4EE4D
:100AF000423AF1EE10FA1CBFD84310EB0B0004D0C1
:100B0000002000BF01308642FCD1B5EE401AF1EE64
:100B100010FA00F0A580CDE90346AEEB030C0A996C
:100B2000BCF1010F4FF07E5008600AD00120294629
:100B300091ED002A82EE012A01308742A1EC012AC0
:100B4000F6D1DDE9080100BF91ED002A82EE012A0D
:100B50000C1D013081ED002A2146F5D1ACF1010BCD
:100B600005994FF00008DDF818A04846CDF8089028
:100B7000984505D100EB8C060AEB8E0A33E000BFE6
:100B800090ED001A0A9CB0EE413ABBF1000F94EDD3
:100B9000002A01EE423A00F1040680ED003A15D039
:100BA0000120002406EB040905EB040E99ED002A50
:100BB0009EED003A01EE432A0130874204F104041D
:100BC00089ED002AEED12644DDF81CE0DDE90804B9
:100BD0009AED002A94ED003A01EE432A04340130E4
:100BE000AAEC012AF4D106EB8300013908F10108CF
:100BF000BED1DDF80890013F049E09F10409039C71
:100C000003F101030198A6F101060444DDF814B0D4
:100C100005447FF42DAFB5EE401A009BF1EE10FABB
:100C200020D10EFB0BF1002000294FF000020BD069
:100C300093ED000AB5EE400AF1EE10FA04D101324C
:100C40008A4203F10403F3D38A4208BF6FF0040021
:100C50000BB0BDE8F08FFD2250B20BB0BDE8F08FB5
:100C6000FB22F9E70022F7E7000000002DE9F04F32
:100C700088B0B0F802C00B889C4540F08880B0F87E
:100C800000E013889E4540F08280B1F802905388BE
:100C900099457CD14FEA9C04476804FB09F04968F8
:100CA0000CF00305029101EB0010019000202CF0E4
:100CB0000303A0EB9C0107EB830607914FEA89032E
:100CC0005168C5F1000A00919FED330ACDE9039CFC
:100CD000CDE9050E0099CE4601EB8008DDE901BCA7
:100CE000002CB0EE401AE146384627D062460799FC
:100CF0003846B0EE401A00BF92ED002A90ED003A5F
:100D000003EE021A1A4490ED014A92ED002A04EE15
:100D1000021A1A4490ED025A92ED002A05EE021AC8
:100D20001A4490ED036A92ED002A06EE021A013190
:100D300000F110001A44DFD1D946304655B1514672
:100D400090ED002A99ED003A02EE031A04300131C9
:100D50009944F5D108F1040088ED001ABEF1010EA6
:100D60000CF1040C0BF1040B8046B9D1DDF80C90AA
:100D70000598DDF810C04844DDF818E007EB8C0753
:100D8000BEF1010E06EB8C06A2D1002000E0FD2092
:100D900040B208B0BDE8F08F00000000B0B5038895
:100DA0000D88AB4256D145884C88A54252D1148853
:100DB000A3424FD15488A5424CD105FB03FC4368A4
:100DC00000254968B5EB9C0F506831D04FEA9C0272
:100DD000524200BF93ED000A91ED001A30EE410A35
:100DE00003F1100E01F1100400F1100580ED000A6E
:100DF000013293ED010A91ED011A30EE410A80EDC6
:100E0000010A93ED020A91ED021A30EE410A80EDDB
:100E1000020A93ED030A91ED031A30EE410A73467C
:100E2000214680ED030A2846D4D121462846734640
:100E30001CF003020CD05242B3EC010AB1EC011ACF
:100E400030EE410A051D013280ED000A2846F3D13B
:100E5000002000E0FD2040B2B0BD7047704700BFE9
:100E6000FEE7704772B600BFFEE7000010B52848E5
:100E700004F0B4FC03F0A6FA20B126A004F0AEFC06
:100E8000012010BD00F0FEF820B12BA004F0A6FC5C
:100E90000120F6E73348006805F01EFB3248006881
:100EA00005F01AFB3148006805F016FB3048006871
:100EB00005F012FB2F48006805F00EFB2E48006875
:100EC00005F00AFB2D48006805F006FB2C48006879
:100ED00005F002FB2B48006805F0FEFA2A4800687E
:100EE00005F0FAFA2948006805F0F6FA2848006883
:100EF00005F0F2FA2748006805F0EEFA2648006887
:100F000005F0EAFA25A004F069FC0020B9E700002A
:100F1000806700085B4750525F5350435D203A2082
:100F20004572726F72206C6F6164696E67206461D4
:100F300074612E2E2E0A0D005B4750525F535043B2
:100F40005D203A204572726F7220696E20475052C0
:100F50002D53504320636F6D707574696E672E2E2C
:100F60002E0A0D00F4010024F8010024FC010024E5
:100F70000002002404020024080200240C020024C1
:100F80001002002414020024180200241C02002471
:100F90002002002424020024280200245B4750522F
:100FA0005F5350435D203A204750522D5350432009
:100FB00063616C63756C6174696F6E20646F6E65DC
:100FC000210A00002DE9F0412DED028B06460F4667
:100FD0001546B0EE408B9FED280A284880ED000AA8
:100FE000002429E006EB840090ED000A07EB840062
:100FF000D0ED000A30EE600A214800EB840080ED5D
:10100000000A1F4800EB840090ED000A60EE000A21
:1010100005EB840090ED001A80EE810A05EB840058
:1010200090ED001AC0EE010A144890ED000A30EE6F
:10103000800A80ED000A641C022CD3DBB1EE681A32
:101040000E48D0ED001A21EE211AB7EEC11AB0EE0B
:10105000410B04F009FC28EE081AB7EEC11A20EE85
:10106000010BB7EEC00B054880ED000A90ED000AB9
:10107000BDEC028BBDE8F08100000000B802002446
:10108000B002002470B504214FF46170FFF77DF9C0
:10109000FB49086004214FF49670FFF776F9F9498F
:1010A000086004214FF49670FFF76FF9F649086065
:1010B00004216420FFF769F9F449086004214FF422
:1010C0006170FFF762F9F249086004214FF49670ED
:1010D000FFF75BF9EF49086004211E20FFF755F97F
:1010E000ED49086004210A20FFF74FF9EB49086039
:1010F00004211E20FFF749F9E949086004210A206C
:10110000FFF743F9E749086004210A20FFF73DF99A
:10111000E549086004210A20FFF737F9E349086030
:1011200004216420FFF731F9E149086004216420BB
:10113000FFF72BF9DF490860002531E000242CE09F
:10114000DD4A02EBC40102EBC500DC4AD2ED000A25
:10115000DB4ADC4B93ED000AFFF734FFDA4880ED01
:10116000000AA54201D1012000E0002000EE100A93
:10117000F8EEC00AD44890ED000AD44890ED001A69
:1011800001EE200AC5EB051004EB4000BC490968DC
:1011900001EB800080ED000A641C1E2CD0DB6D1C6E
:1011A0001E2DCBDBB6481E2211460368C848FFF748
:1011B000F2FB002530E000242BE0BF4A02EBC40123
:1011C000C44A02EBC500BD4AD2ED000ABC4ABD4B81
:1011D00093ED000AFFF7F6FEBB4880ED000A90EDA4
:1011E000000AC5EB051004EB4000A649096801EBB5
:1011F000800080ED000AB44890ED000A04EB840002
:1012000005EB4000A049096801EB800080ED000A71
:10121000641C1E2CD1DB6D1C0A2DCCDB99481E22D0
:101220000A210368AC48FFF7B6FB97480A221E2143
:101230000368AA48FFF7AFFBA9A004F0CFFA07257F
:101240001BE01B2413E0C5EB051004EB40008D49A7
:10125000096801EB800090ED001AB7EEC11AB0EEFC
:10126000410B53EC102BA8A004F0B8FA641C1E2C00
:10127000E9DBA7A004F0B2FA6D1C0A2DE1DBA5A002
:1012800004F0ACFA1B251BE0072413E005EB8500F6
:1012900004EB40007C49096801EB800090ED001AE6
:1012A000B7EEC11AB0EE410B53EC102B96A004F030
:1012B00095FA641C0A2CE9DB95A004F08FFA6D1CEA
:1012C0001E2DE1DB00251DE0002418E0814A02EB21
:1012D000C40102EBC500794AD2ED000A784A794B85
:1012E00093ED000AFFF76EFE05EB850004EB40006E
:1012F0006649096801EB800080ED000A641C0A2C35
:10130000E4DB6D1C0A2DDFDB60480A22114603680E
:101310008A48FFF740FB8AA004F060FA07251BE02B
:10132000072413E005EB850004EB400057490968EA
:1013300001EB800090ED001AB7EEC11AB0EE410B40
:1013400053EC102B70A004F049FA641C0A2CE9DB62
:101350006FA004F043FA6D1C0A2DE1DB4C481E22FD
:10136000114603688048FFF716FB7F495848FFF78E
:1013700017FB7EA004F032FA1B251BE01B2413E0B0
:10138000C5EB051004EB40004149096801EB800002
:1013900090ED001AB7EEC11AB0EE410B53EC102BD2
:1013A00059A004F01BFA641C1E2CE9DB58A004F0C1
:1013B00015FA6D1C1E2DE1DB36481E220A2103683A
:1013C0007548FFF7E8FA744A67494348FFF74EFC4F
:1013D00072A004F003FA07251BE01B2413E0C5EB01
:1013E000051004EB40002B49096801EB800090EDEB
:1013F000001AB7EEC11AB0EE410B53EC102B42A00D
:1014000004F0ECF9641C1E2CE9DB41A004F0E6F9C1
:101410006D1C0A2DE1DB00242DE09FED6C0A6C4869
:1014200000EB840080ED000A002513E0694800EB22
:10143000850000EB840090ED000A654800EB840015
:10144000D0ED000A30EE200A614800EB840080ED08
:10145000000A6D1C1E2DE9DB5D4800EB840090ED59
:10146000000AF3EE0E0A80EE201A594800EB8400C1
:1014700080ED001A641C012CCFDB0025BEE00000CB
:10148000F4010024F8010024FC01002400020024DF
:1014900004020024080200240C020024100200248C
:1014A00014020024180200241C020024200200243C
:1014B000240200242802002414000024A80200248E
:1014C000A00200249C020024B8020024AC020024E4
:1014D0002C0200247C010024340200243C0200245D
:1014E0005B4750525F5350435D203A204B7074204D
:1014F000286C617374203320726F777320616E647F
:1015000020636F6C73290A002539662C20000000C7
:101510000A0000005B4750525F5350435D203A2061
:101520004B747020286C617374203320726F777352
:1015300020616E6420636F6C73290A0044020024EA
:101540005B4750525F5350435D203A204B707020F0
:10155000286C617374203320726F777320616E641E
:1015600020636F6C73290A004C0200245B475052C1
:101570005F5350435D203A20494B74746E20286CB1
:10158000617374203320726F777320616E642063FF
:101590006F6C73290A000000540200245B4750520C
:1015A0005F5350435D203A204B707478494B7474FC
:1015B0006E20286C617374203320726F7773206102
:1015C0006E6420636F6C73290A0000000000000045
:1015D0000C0000240401002400240CE0E54800EB8A
:1015E000840090ED000A2819E349096801EB8000A6
:1015F00080ED000A641C012CF0DB6D1C1E2DEBDB62
:10160000002511E000240CE0DC4800EB840090EDA4
:10161000000A2819DA49096801EB800080ED000A08
:10162000641C012CF0DB6D1C0A2DEBDBD24801227F
:101630001E210368D348FFF7AEF9D14801220A21E1
:101640000368D148FFF7A7F900251AE0002415E048
:10165000CE4800EB850000EB840090ED000AC54801
:1016600000EB8400D0ED000A30EE600A2819C8496A
:10167000096801EB800080ED000A641C012CE7DBA7
:101680006D1C1E2DE2DBC24801221E210368C148E9
:10169000FFF781F9C04801220A210368BF48FFF71C
:1016A0007AF9BE4ABB49BE48FFF7E0FA002511E0CF
:1016B00000240CE0AF4800EB840090ED000A2819EC
:1016C000B849096801EB800080ED000A641C012C18
:1016D000F0DB6D1C0A2DEBDBB24801220A21036806
:1016E000B148FFF758F9B14801220A210368B04810
:1016F000FFF751F9AE4AAC49A848FFF7EDF80025CD
:1017000013E000240EE02819A849096801EB8000C5
:1017100090ED000AA74800EB850000EB840080ED07
:10172000000A641C012CEEDB6D1C0A2DE9DBA2A073
:1017300004F054F8A9A004F051F8002515E00024A5
:1017400010E09C4800EB850000EB840090ED001A4F
:10175000B7EEC11AB0EE410B53EC102BA5A004F06C
:101760003DF8641C012CECDB6D1C0A2DE7DB9AA014
:1017700004F034F8A1480A2211460368A048FFF794
:101780000AF99F4A9F498648FFF770FA9EA004F025
:1017900025F807251DE0072414E005EB850004EB80
:1017A00040009649096801EB800090ED001AB7EE01
:1017B000C11AB0EE410B53EC102BAFF2B42004F081
:1017C0000DF8641C0A2CE8DBAFF2BC2004F006F82C
:1017D0006D1C0A2DDFDB99480A22114603689848E0
:1017E000FFF7D9F8964A86499648FFF7D7FA96A0A8
:1017F00003F0F4FF07251DE0072414E005EB850046
:1018000004EB40008D49096801EB800090ED001A5F
:10181000B7EEC11AB0EE410B53EC102BAFF21830FB
:1018200003F0DCFF641C0A2CE8DBAFF21C3003F091
:10183000D5FF6D1C0A2DDFDB002515E0002410E02C
:1018400028197E49096801EB800090ED000A05EB3C
:1018500085008A4901EBC00000EB840080ED000A9E
:10186000641C0A2CECDB6D1C0A2DE7DB002515E05F
:10187000002410E005EB8500804901EBC00000EB7F
:10188000850090ED000A7E4800EB850000EB8400A7
:1018900080ED000A641C012CECDB6D1C0A2DE7DBDB
:1018A00078A003F09BFF002518E0002410E07448A6
:1018B00000EB850000EB840090ED001AB7EEC11A32
:1018C000B0EE410B53EC102B75A003F087FF641CA6
:1018D000012CECDB40A003F081FF6D1C0A2DE4DB42
:1018E000002523E000241EE0654800EB850000EBA6
:1018F000840090ED001ADFED6C1A21EE211AB7EE8C
:10190000C11AB0EE410B04F0E3F8B2EE041B80EE16
:10191000012BB7EEC20B654800EB850000EB84009D
:1019200080ED000A641C012CDEDB6D1C0A2DD9DB66
:101930005FA003F053FF002515E0002410E05B4892
:1019400000EB850000EB840090ED001AB7EEC11AA1
:10195000B0EE410B53EC102B26A003F03FFF641CAC
:10196000012CECDB6D1C0A2DE7DB1BA003F036FF1E
:10197000002070BD0C0000240C0200241000002484
:10198000100200245C0200246402002404010024EC
:10199000140200246C0200241802002474020024A3
:1019A000540200241C0200247C0200242002002493
:1019B00084020024F41600245B4750525F535043C6
:1019C0005D203A204F55545F505245442063616C6E
:1019D00063756C617465642E0A0D00005B4750529C
:1019E0005F5350435D203A204F55545F5052454459
:1019F0003A0A0D00253132662C0000002402002432
:101A00008C0200243C0200245B4750525F53504339
:101A10005D203A204F75745F507265645F56617245
:101A20005F543220286C617374203320726F777397
:101A300020616E6420636F6C73290A002802002401
:101A400094020024440200245B4750525F535043E9
:101A50005D203A204F75745F507265645F56617205
:101A600020286C617374203320726F777320616E4D
:101A70006420636F6C73290A000000001C170024A7
:101A8000AC1800245B4750525F5350435D203A200E
:101A90004F55545F505245445F5641523A0A0D002B
:101AA00025313266090000000000C842D418002425
:101AB0005B4750525F5350435D203A204F55545F6F
:101AC000505245445F5354443A0A0D0070B50446E1
:101AD00000F018F906462546681C10B10448007845
:101AE000054400BF00F00EF9801BA842FAD370BD78
:101AF000C8020024F8B502460B4600216D4DD2E025
:101B000001278F401E6806EA0704002C72D01E7958
:101B100006F00306012E04D01E7906F00306022EFD
:101B200013D190684F000326BE40B0434F00DE68DB
:101B3000BE4030439060506801268E40B0431E790D
:101B4000C6F300168E40304350601E7906F003063F
:101B5000032E09D0D0684F000326BE40B0434F008B
:101B60009E68BE403043D0601E7906F00306022E08
:101B700013D1CF0802F1200656F827004E07F70EC2
:101B80000F26BE40B0434F07FF0E1E69BE403043D4
:101B9000CF0802F1200646F8270010684F00032600
:101BA000BE40B0431E7906F003064F00BE403043EE
:101BB00010605E6806F44036002E73D000BF3E4EC3
:101BC000366846F002063C4F3E603E46366806F0F8
:101BD0000206009600BF00BF384E8F0856F8270057
:101BE0008E07370F0F26BE40B043354EB24202D1AA
:101BF000002629E056E0334EB24201D1012623E00F
:101C0000314EB24201D102261EE0304EB24201D125
:101C1000032619E02E4EB24201D1042614E02D4EC7
:101C2000B24201D105260FE02B4EB24201D1062669
:101C30000AE02A4EB24201D1072605E0284EB24200
:101C400001D1092600E00A268F073F0FBE4030432E
:101C50001A4E8F0846F827004FF0B0463068A04370
:101C60005E6806F4801606B120434FF0B04630603F
:101C70007068A0435E6806F4001606B120434FF07A
:101C8000B04670606868A0435E6806F4003606B12E
:101C9000204368602868A0435E6806F4803606B179
:101CA00020432860491C1E68CE40002E7FF428AFD8
:101CB000F8BD000080000058F444025808040058A1
:101CC000000002580004025800080258000C025894
:101CD000001002580014025800180258001C025844
:101CE0000024025810B5426921EA020302EA010405
:101CF00043EA0443836110BD0AB1816101E00B0432
:101D0000836170470148006870470000C0020024EA
:101D1000034800680349097808440149086070478E
:101D2000C0020024C802002410B5032000F0A8F867
:101D300001F06AFB10490968C1F303210F4A515CA5
:101D400001F01F0120FA01F40B48006800F00F00B9
:101D50001146085C00F01F0024FA00F008490860F2
:101D6000084804600F2000F00FF808B1012010BDF2
:101D700000F036F80020FAE718440258146700080B
:101D8000D0020024CC02002470B50446114800782B
:101D900008B9012070BD0F4800784FF47A71B1FB8B
:101DA000F0F00D490968B1FBF0F5284602F04CF956
:101DB00008B10120EEE7102C07D200222146501E68
:101DC00000F020F80548046001E00120E2E700206F
:101DD000E0E70000C8020024CC020024C402002472
:101DE00008B500BF0648006840F0020004490860DA
:101DF0000846006800F00200009000BF00BF08BD68
:101E0000F44402582DE9F05F80460D46164603F073
:101E10000DFD074639462A46334601F00700C0F15A
:101E2000070ABAF1040F02D94FF0040A01E0C0F129
:101E3000070AD14600F1040ABAF1070F02D24FF0A7
:101E4000000A01E0A0F1030AD4464FF0010A0AFAA1
:101E500009FAAAF1010A0AEA020A0AFA0CFA4FF090
:101E6000010B0BFA0CFBABF1010B0BEA030B4AEA7B
:101E70000B042146404603F0E1FCBDE8F09F000062
:101E800000BF00F00702064B19684FF6FF03194028
:101E9000044B0B4343EA0221014B196000BF70471A
:101EA0000CED00E00000FA0570B504461548006826
:101EB000C0F3800048B91348006800F00700A04252
:101EC00001D0012070BD0020FCE70E48006820F022
:101ED000070020430B490860FFF714FF054607E0A1
:101EE000FFF710FF401BB0F57A7F01D90120E9E729
:101EF000044808380068C0F340300028F0D00020C3
:101F0000E0E700000C48025810B501F033FA05492B
:101F10000968C1F30211044A515C01F01F01C84075
:101F200010BD0000204402581467000870B5014637
:101F3000844D2D6805F00303824D2D68C5F30530EF
:101F4000804D2D1D2D68C5F300147E4D14352D6870
:101F5000C5F3CC0515FB04F501EE105AB8EE411A95
:101F6000F0EE410A00286FD023B1012B4ED0022B96
:101F70006BD16BE0734D283D2D68C5F340153DB323
:101F8000704D283D2D68C5F3C1066F4D25FA06F248
:101F900001EE102AF8EE411A01EE100AB8EE411ACD
:101FA00081EE812A9FED691AC0EE811A654D1035C8
:101FB0002D68C5F3080501EE105AB8EE411A31EE4E
:101FC000811AF7EE001A31EE211A22EE010A1CE006
:101FD00001EE100AB8EE411ADFED5D1A81EE812A9A
:101FE0009FED5A1AC0EE811A564D10352D68C5F373
:101FF000080501EE105AB8EE411A31EE811AF7EEDB
:10200000001A31EE211A22EE010A5BE001EE100AFD
:10201000B8EE411ADFED4F1A81EE812A9FED4B1A7F
:10202000C0EE811A474D10352D68C5F3080501EE45
:10203000105AB8EE411A31EE811AF7EE001A31EE5D
:10204000211A22EE010A3DE077E01DE001EE100AC0
:10205000B8EE411A9FED402AC2EE011A9FED3B1ADD
:1020600080EE812A374D10352D68C5F3080501EE45
:10207000105AB8EE411A32EE011AB7EE002A31EECC
:10208000021A21EE810A1DE001EE100AB8EE411A93
:10209000DFED301A81EE812A9FED2C1AC0EE811AF5
:1020A000284D10352D68C5F3080501EE105AB8EE1D
:1020B000411A31EE811AF7EE001A31EE211A22EEA2
:1020C000010A00BF00BF1F4D10352D68C5F346251E
:1020D00001EE105AB8EE411AF7EE001A31EE211A4D
:1020E000C0EE011ABCEEE11A81ED001A154D103553
:1020F0002D68C5F3064501EE105AB8EE411AF7EE09
:10210000001A31EE211AC0EE011ABCEEE11A81ED7F
:10211000011A0C4D10352D68C5F3066501EE105AF5
:10212000B8EE411AF7EE001A31EE211AC0EE011A8C
:10213000BCEEE11A81ED021A03E000250D604D604E
:102140008D6070BD284402580090D0030000004606
:102150000024744C0024744A20BCBE4B70B5014668
:10216000844D2D6805F00303824D2D68C5F305509D
:10217000804D2D1D2D68C5F300247E4D1C352D6826
:10218000C5F3CC0515FB04F501EE105AB8EE411A63
:10219000F0EE410A00286FD023B1012B4ED0022B64
:1021A0006BD16BE0734D283D2D68C5F340153DB3F1
:1021B000704D283D2D68C5F3C1066F4D25FA06F216
:1021C00001EE102AF8EE411A01EE100AB8EE411A9B
:1021D00081EE812A9FED691AC0EE811A654D18358E
:1021E0002D68C5F3080501EE105AB8EE411A31EE1C
:1021F000811AF7EE001A31EE211A22EE010A1CE0D4
:1022000001EE100AB8EE411ADFED5D1A81EE812A67
:102210009FED5A1AC0EE811A564D18352D68C5F338
:10222000080501EE105AB8EE411A31EE811AF7EEA8
:10223000001A31EE211A22EE010A5BE001EE100ACB
:10224000B8EE411ADFED4F1A81EE812A9FED4B1A4D
:10225000C0EE811A474D18352D68C5F3080501EE0B
:10226000105AB8EE411A31EE811AF7EE001A31EE2B
:10227000211A22EE010A3DE077E01DE001EE100A8E
:10228000B8EE411A9FED402AC2EE011A9FED3B1AAB
:1022900080EE812A374D18352D68C5F3080501EE0B
:1022A000105AB8EE411A32EE011AB7EE002A31EE9A
:1022B000021A21EE810A1DE001EE100AB8EE411A61
:1022C000DFED301A81EE812A9FED2C1AC0EE811AC3
:1022D000284D18352D68C5F3080501EE105AB8EEE3
:1022E000411A31EE811AF7EE001A31EE211A22EE70
:1022F000010A00BF00BF1F4D18352D68C5F34625E4
:1023000001EE105AB8EE411AF7EE001A31EE211A1A
:10231000C0EE011ABCEEE11A81ED001A154D183518
:102320002D68C5F3064501EE105AB8EE411AF7EED6
:10233000001A31EE211AC0EE011ABCEEE11A81ED4D
:10234000011A0C4D18352D68C5F3066501EE105ABB
:10235000B8EE411AF7EE001A31EE211AC0EE011A5A
:10236000BCEEE11A81ED021A03E000250D604D601C
:102370008D6070BD284402580090D00300000046D4
:102380000024744C0024744A20BCBE4B2DE9F0415B
:1023900004460025A8464FF00062D4E90010114021
:1023A0000020134659404040014331D1606E48B18E
:1023B000B0F5801F0DD0B0F5001F11D0B0F5401F53
:1023C00016D114E0FE48006840F40030FC49086073
:1023D00010E0022104F1080002F054F9054609E07A
:1023E000022104F1280002F0FFF9054602E001E0B5
:1023F000012500BF00BF55B9F1482430006820F422
:102400004010616E0843EE492431086000E0A846A0
:102410004FF48072D4E90010114000201346594057
:10242000404001432ED1A06D05281BD2DFE800F00B
:10243000030A11181900E248006840F40030E0492E
:10244000086011E0002104F1080002F01BF90546C4
:102450000AE0002104F1280002F0C6F9054603E075
:1024600002E001E0012500BF00BF55B9D448243087
:10247000006820F00700A16D0843D14924310860AD
:1024800000E0A8464FF48062D4E90010114000201B
:1024900013465940404001433DD1D4F8A400B0F563
:1024A000C00F24D007DC68B1B0F5001F11D0B0F523
:1024B000800F1FD114E0B0F5000F19D0B0F5200F38
:1024C00018D116E0BE48006840F40030BC490860EE
:1024D00012E0002104F1080002F0D4F805460BE0F8
:1024E000002104F1280002F07FF9054604E003E032
:1024F00002E001E0012500BF00BF5DB9B0482C300B
:10250000006820F46000D4F8A4100843AC492C31D2
:10251000086000E0A8464FF40062D4E900011040D2
:10252000002113465840494008433DD1D4F8A80043
:10253000B0F1407F24D007DC68B1B0F1807F11D0CA
:10254000B0F1007F1FD114E0B0F1806F19D0B0F16D
:10255000A06F18D116E09A48006840F400309849FE
:10256000086012E0002104F1080002F08BF8054633
:102570000BE0002104F1280002F036F9054604E0E2
:1025800003E002E001E0012500BF00BF5DB98C4817
:102590002C30006820F0E060D4F8A8100843884987
:1025A0002C31086000E0A8464FF00073D4E9001019
:1025B0001940002059404040014328D1E06CA8B1A7
:1025C000102804D0202809D0302810D10DE07C48F4
:1025D000006840F400307A4908600AE0022104F102
:1025E000080002F04FF8054603E002E001E0012593
:1025F00000BF00BF55B972482030006820F030009D
:10260000E16C08436E492031086000E0A8464FF4B1
:102610008053D4E900101940002059404040014344
:1026200037D1E06DB0F5005F1AD004DC50B1B0F5E1
:10263000805F1ED10DE0B0F5405F18D0B0F5804F3F
:1026400017D115E05E48006840F400305C4908602E
:1026500011E0002104F1080002F014F805460AE038
:10266000002104F1280002F0BFF8054603E002E073
:1026700001E0012500BF00BF55B951482430006872
:1026800020F4E040E16D08434D492431086000E04A
:10269000A8464FF40053D4E90010194000205940D7
:1026A0004040014335D1206EB0F5403F1ED007DCDD
:1026B00068B1B0F5803F0BD0B0F5003F19D10EE006
:1026C000B0F5802F13D0B0F5A02F12D110E012E09A
:1026D000012104F1080001F0D5FF05460BE00121BE
:1026E00004F1280002F080F8054604E003E002E06F
:1026F00001E0012500BF00BF55B931482430006812
:1027000020F4E020216E08432D492431086000E0C8
:10271000A8464FF48042D4E900011040002113463E
:1027200058404940084337D1D4F8AC00B0F1405F7D
:102730001ED007DC68B1B0F1805F0BD0B0F1005F54
:1027400019D10EE0B0F1804F13D0B0F1A04F12D1EB
:1027500010E012E0012104F1080001F093FF0546AA
:102760000BE0012104F1280002F03EF8054604E0E8
:1027700003E002E001E0012500BF00BF5DB91048A1
:102780002C30006820F0E040D4F8AC1008430C492D
:102790002C31086000E0A8464FF40043D4E9000162
:1027A000184000215840494008432AD1E06EB8B192
:1027B000B0F1805F06D0B0F1005F12D109E00000F7
:1027C0002C440258F948006840F40030F74908608A
:1027D00009E0012104F1080001F054FF054602E080
:1027E00001E0012500BF00BF55B9F0482430006862
:1027F00020F04050E16E0843EC492431086000E0CD
:10280000A8464FF08073D4E90010194000205940C9
:102810004040014328D1A06CA8B1012804D002286F
:1028200009D0032810D10DE0E048006840F40030E2
:10283000DE4908600AE0022104F1080001F022FFED
:10284000054603E002E001E0012500BF00BF55B9E5
:10285000D6482030006820F00300A16C0843D3491B
:102860002031086000E0A8464FF48003D4E900104E
:10287000194000205940404001437DD1CC480068B8
:1028800040F48070CA490860FFF73CFA064606E04B
:10289000FFF738FA801B642801D9032505E0C448F6
:1028A000006800F480700028F2D000BF85BBBF48EC
:1028B0004430006800F44070B4F8B01001F4407186
:1028C000884213D0B9484430006820F44077B748B4
:1028D0004430006840F48030B44944310860084610
:1028E000006820F48030086008460760D4F8B00023
:1028F000B0F5807F15D1FFF705FA064609E0FFF72E
:1029000001FA801B41F28831884202D9032507E091
:1029100038E0A64844300068C0F340000028EED0FC
:1029200000BF55BB00BFB4F8B00000F44070B0F574
:10293000407F0ED19D481C38006820F47C519D4A90
:10294000D4F8B000104041EA101098491C390860D2
:1029500007E096481C38006820F47C5093491C39E5
:102960000860924844300068B4F8B010C1F30B011D
:1029700008438E49443101E005E001E0086002E0CF
:10298000A84600E0A8460122D4E900011040002139
:10299000134658404940084330D1A06F18281AD038
:1029A00005DC48B1082808D0102817D10CE02028F1
:1029B00012D0282812D110E012E0012104F1080001
:1029C00001F060FE05460BE0012104F1280001F052
:1029D0000BFF054604E003E002E001E0012500BF33
:1029E00000BF55B971482830006820F03800A16F49
:1029F00008436E492831086000E0A8460223D4E964
:102A000000101940002059404040014329D1606F17
:102A1000062816D2DFE800F003040B12131412E0AC
:102A2000012104F1080001F02DFE05460BE0012113
:102A300004F1280001F0D8FE054604E003E002E0BE
:102A400001E0012500BF00BF55B958482830006893
:102A500020F00700616F084354492831086000E006
:102A6000A8460422D4E90010114000201346594022
:102A7000404001432BD1D4F89000062816D2DFE85D
:102A800000F003040B12131412E0012104F10800FA
:102A900001F0F8FD05460BE0012104F1280001F0EA
:102AA000A3FE054604E003E002E001E0012500BFCB
:102AB00000BF5DB93D482C30006820F00700D4F815
:102AC0009010084339492C31086000E0A8462023C3
:102AD000D4E900011840002158404940084337D14B
:102AE000D4F88C00B0F1405F1ED007DC68B1B0F1C3
:102AF000805F0BD0B0F1005F19D10EE0B0F1804FD4
:102B000013D0B0F1A04F12D110E012E0002104F177
:102B1000080001F0B7FD05460BE0022104F1280092
:102B200001F062FE054604E003E002E001E0012559
:102B300000BF00BF5DB91D482830006820F0E040AC
:102B4000D4F88C10084319492831086000E0A846E1
:102B50004023D4E90010194000205940404001436F
:102B60003CD1D4F89800B0F5406F25D007DC68B1AF
:102B7000B0F5806F0BD0B0F5006F20D10EE0B0F54E
:102B8000805F1AD0B0F5A05F19D117E019E00021DD
:102B900004F1080001F076FD054612E0022104F17F
:102BA000280001F021FE05460BE000002C440258ED
:102BB00000480258FFFCFF0F03E002E001E001259E
:102BC00000BF00BF4DB9FE48006820F4E050D4F8C3
:102BD00098100843FA49086000E0A8468023D4E929
:102BE00000101940002059404040014335D1D4F82D
:102BF0009C00B0F5C04F1ED007DC68B1B0F5005F97
:102C00000BD0B0F5804F19D10EE0B0F5004F13D0C6
:102C1000B0F5204F12D110E012E0002104F10800BD
:102C200001F030FD05460BE0022104F1280001F01F
:102C3000DBFD054604E003E002E001E0012500BF02
:102C400000BF4DB9DE48006820F46040D4F89C1005
:102C50000843DB49086000E0A8460823D4E90001E6
:102C60001840002158404940084317D1D4F880004B
:102C7000B0F5805F07D1022104F1280001F0B4FD16
:102C800008B14FF00108CE48001F006820F4405002
:102C9000D4F880100843CA49091F08601023D4E9FA
:102CA00000011840002158404940084315D1D4F88C
:102CB0009400B0F5807F07D1022104F1280001F0D3
:102CC00093FD08B14FF00108BD48006820F4407042
:102CD000D4F894100843BA4908604FF40023D4E9AB
:102CE00000011840002158404940084327D1D4F83A
:102CF000A00030B1B0F5803F0AD0B0F5003F0FD151
:102D00000DE0002104F1080001F0BCFC054609E0DB
:102D1000022104F1280001F067FD054602E001E010
:102D2000012500BF00BF4DB9A548006820F4403020
:102D3000D4F8A0100843A249086000E0A8464FF468
:102D40008023D4E90001184000215840494008433D
:102D50002DD1D4F88400B0F5801F06D0B0F5001F47
:102D60000CD0B0F5401F11D10FE095482C38006809
:102D700040F4003092492C39086009E0012104F147
:102D8000280001F031FD054602E001E0012500BF09
:102D900000BF5DB98A48001F006820F44010D4F8D5
:102DA000841008438649091F086000E0A8464FF4D4
:102DB0008032D4E9000110400021134658404940B8
:102DC000084325D1206D18B1B0F5803F10D108E03F
:102DD0007B482C38006840F4003079492C39086071
:102DE00008E0022104F1080001F04CFC054601E076
:102DF000012500BF00BF55B971480C38006820F4A8
:102E00008030216D08436E490C39086000E0A84607
:102E10004FF00053D4E900101940002059404040C1
:102E2000014307D1022104F1280001F0DDFC08B1C3
:102E30004FF001084FF40032D4E9000110400021A6
:102E4000134658404940084327D1E06FA0B1B0F580
:102E5000807F06D0B0F5007F0CD0B0F5407F0CD15C
:102E600009E057482C38006840F4003054492C39A8
:102E7000086004E003E002E001E0012500BF00BFBC
:102E800055B94F48001F006820F44070E16F0843B7
:102E90004B49091F086000E0A8464FF48012D4E9AE
:102EA000001011400020134659404040014309D111
:102EB00043480838006820F00040216F084340492B
:102EC000083908604FF40013D4E9000118400021CC
:102ED00058404940084309D139480838006820F073
:102EE0008070A16E08433649083908604FF080436E
:102EF000D4E900101940002059404040014311D14D
:102F000000BF2F484838006820F400402C49483959
:102F1000086008460068D4F8B410084328494839C6
:102F2000086000BF4FF00042D4E9000110400021CA
:102F3000134658404940084309D121480C380068DD
:102F400020F04050616D08431D490C3908604FF472
:102F50000002D4E9001011400020134659404040BF
:102F600001430AD11648001F006820F44000D4F83D
:102F7000881008431249091F086001220021606877
:102F8000104049405040014306D104F1080001F0CF
:102F900079FB054605B1A846022200216068104071
:102FA00049405040014307D1012104F1080001F0DC
:102FB00069FB054605B1A84604230020616801E0CD
:102FC000584402581940042240405140084307D158
:102FD000022104F1080001F055FB054605B1A846A1
:102FE00008230020616819400822404051400843EE
:102FF00007D1002104F1280001F0F6FB054605B1D8
:10300000A84610230020616819401022404051401A
:10301000084307D1012104F1280001F0E5FB054632
:1030200005B1A84620220021606810404940504068
:10303000014307D1022104F1280001F0D5FB054628
:1030400005B1A846B8F1000F02D10020BDE8F0811B
:103050000120FBE72DE9F04104460D4614B901209B
:10306000BDE8F081BD48006800F00F00A8420ED214
:10307000BA48006820F00F002843B84908600846A5
:10308000006800F00F00A84201D00120E8E7207896
:1030900000F0040004280ED1B1492069096801F04C
:1030A0007001884207D9AE48006820F0700021699D
:1030B0000843AB490860207800F00800082811D1C7
:1030C000A749091D6069096801F07001884209D9A2
:1030D000A348001D006820F0700061690843A04902
:1030E000091D0860207800F01000102811D19C49BB
:1030F000091DA069096801F4E061884209D998486E
:10310000001D006820F4E060A16908439449091D8E
:103110000860207800F02000202811D19049083163
:10312000E069096801F07001884209D98C480830CB
:10313000006820F07000E16908438949083108609F
:10314000207800F0020002280ED18549E068096865
:1031500001F00F01884207D98148006820F00F0074
:10316000E16808437E490860207800F001000028EB
:1031700050D07B48006820F47060A168084378490B
:1031800008606068022807D1754818380068C0F3E5
:103190004040F8B9012063E76068032807D1704810
:1031A00018380068C0F34060A0B9012058E7606893
:1031B000012807D16A4818380068C0F3002048B9D0
:1031C00001204DE7664818380068C0F3800008B950
:1031D000012045E762480838006820F00700616870
:1031E00008435F4908390860FEF78CFD064608E091
:1031F000FEF788FD801B41F28831884201D9032007
:103200002EE757480838006800F038006168B0EBD6
:10321000C10FEDD1207800F0020002280ED15049F4
:10322000E068096801F00F01884207D24C48006845
:1032300020F00F00E16808434949086047480068EA
:1032400000F00F00A8420ED94448006820F00F009B
:103250002843424908600846006800F00F00A84271
:1032600001D00120FCE6207800F0040004280ED1F3
:103270003B492069096801F07001884207D238484B
:10328000006820F070002169084335490860207803
:1032900000F00800082811D13149091D606909684A
:1032A00001F07001884209D22D48001D006820F00D
:1032B0007000616908432A49091D0860207800F000
:1032C0001000102811D12649091DA069096801F4D0
:1032D000E061884209D22248001D006820F4E060C5
:1032E000A16908431E49091D0860207800F02000EC
:1032F000202811D11A490831E069096801F07001EC
:10330000884209D216480830006820F07000E16950
:10331000084313490831086000F076F8104909683D
:10332000C1F303210F4A515C01F01F0120FA01F79C
:103330000B48006800F00F001146085C00F01F0009
:1033400027FA00F008490860084807600848006844
:10335000FEF71AFD8046404682E60000002000523B
:103360001844025814670008D0020024CC0200243C
:10337000C402002410B500F047F80D490968C1F3F4
:1033800003210C4A515C01F01F0120FA01F40848A6
:10339000006800F00F001146085C00F01F0024FADE
:1033A00000F005490860054804600846006810BD43
:1033B0001844025814670008D0020024CC020024EC
:1033C00000B5FFF7D7FF05490968C1F30211044AA8
:1033D000515C01F01F01C84000BD00001C440258B0
:1033E0001467000800B5FFF7C5FF05490968C1F378
:1033F0000221044A515C01F01F01C84000BD0000D9
:103400001C44025814670008F0B5824E366806F076
:10341000380636B1082E15D0102E15D0182E7DD1B5
:1034200014E07C4E103E3668C6F3401646B1794E25
:10343000103E3668C6F3C107774E26FA07F000E063
:103440007548E5E07548E3E07548E1E0714E1836EF
:10345000366806F003046F4E18363668C6F3051159
:103460006C4E1C36366806F001056A4E2436366806
:10347000C6F3CC0616FB05F601EE106AB8EE410A5B
:10348000002971D024B1012C50D0022C6DD16DE0F7
:10349000604E103E3668C6F340163EB35D4E103E99
:1034A0003668C6F3C1075C4E26FA07F301EE103A00
:1034B000F8EE411A01EE101AB8EE411A81EE812A97
:1034C0009FED581AC0EE011A524E20363668C6F3E8
:1034D000080601EE106AB8EE411A31EE811AF7EED5
:1034E000001A31EE211A62EE010A1EE001EE101AF6
:1034F000B8EE411ADFED4C1A81EE812A9FED491A90
:10350000C0EE011A434E20363668C6F3080601EEB7
:10351000106AB8EE411A31EE811A00E076E0F7EE5B
:10352000001A31EE211A62EE010A5BE001EE101A78
:10353000B8EE411A9FED3D2AC2EE011A9FED391AED
:1035400080EE012A334E20363668C6F3080601EEB7
:10355000106AB8EE411A32EE011AB7EE002A31EEC7
:10356000021A61EE810A3DE04EE01DE001EE101A04
:10357000B8EE411ADFED2E1A81EE812A9FED291A4D
:10358000C0EE011A234E20363668C6F3080601EE57
:10359000106AB8EE411A31EE811AF7EE001A31EED8
:1035A000211A62EE010A1DE001EE101AB8EE411A6E
:1035B0009FED1E2AC2EE011A9FED1A1A80EE012A13
:1035C000144E20363668C6F3080601EE106AB8EECF
:1035D000411A32EE011AB7EE002A31EE021A61EEFC
:1035E000810A00BF00BF0B4E20363668C6F3462660
:1035F000721C01EE102AB8EE411AC0EE811ABCEE20
:10360000E11A11EE100A00E0002001E0034800BFBB
:1036100000BFF0BD104402580090D00300093D00E7
:1036200040787D01000000460024744C0024744A58
:1036300020BCBE4B2DE9F047044614B90120BDE87B
:10364000F087207800F00100002870D0F948006869
:1036500000F03808F7481830D0F80090B8F1100F93
:1036600006D0B8F1180F0FD109F0030002280BD1D2
:10367000F04810380068C0F3404000286AD0606805
:10368000002867D10120DAE700BF6068B0F5803F0D
:1036900008D1E8481038006840F48030E549103916
:1036A00008602EE0606868B9E2481038006820F4CD
:1036B0008030E049103908600846006820F4802016
:1036C00008601EE06068B0F5A02F0DD1D948103811
:1036D000006840F48020D749103908600846006827
:1036E00040F4803008600CE0D2481038006820F4C4
:1036F0008030D049103908600846006820F48020E6
:10370000086000BF606898B1FEF7FCFA054606E065
:10371000FEF7F8FA401B642801D903208FE7C5485B
:1037200010380068C0F340400028F1D012E012E0E9
:10373000FEF7E8FA054606E0FEF7E4FA401B6428C7
:1037400001D903207BE7BB4810380068C0F3404034
:103750000028F1D100BF207800F00200022879D1C2
:10376000B448006800F03808B2481830D0F800902B
:10377000B8F1000F05D0B8F1180F35D109F00300EA
:1037800088BBAC4810380068C0F3800018B1E0680E
:1037900008B9012053E7A7481038006820F0190045
:1037A000E1680843A34910390860FEF7ABFA054603
:1037B00006E0FEF7A7FA401B022801D903203EE7E6
:1037C0009C4810380068C0F380000028F1D0994868
:1037D0000C38006820F0FE40217C40EA01609549E9
:1037E0000C39086045E0FFE7E06838B391481038CD
:1037F000006820F01900E16808438E49103908601C
:10380000FEF780FA054606E0FEF77CFA401B022828
:1038100001D9032013E7874810380068C0F38000FF
:103820000028F1D083480C38006820F0FE40217C4D
:1038300040EA01607F490C3908601AE07D48103881
:10384000006820F001007B4910390860FEF75AFA41
:10385000054607E00EE0FEF755FA401B022801D9A5
:103860000320ECE6734810380068C0F3800000289D
:10387000F1D100BF207800F0100010286FD16D4802
:10388000006800F038086B481830D0F80090B8F1A4
:10389000080F06D0B8F1180F1CD109F00300012859
:1038A00018D1644810380068C0F3002020B1E069E6
:1038B000802801D00120C2E600BF5E48001F0068DA
:1038C00020F07C5094F8201040EA01605949091F0B
:1038D000086043E0E06938B356481038006840F0AB
:1038E0008000544910390860FEF70CFA054606E0DE
:1038F000FEF708FA401B022801D903209FE64D4835
:1039000010380068C0F300200028F1D000BF4948FB
:10391000001F006820F07C5094F8201040EA0160FD
:103920004449091F086019E042481038006820F037
:103930008000404910390860FEF7E4F9054606E0CA
:10394000FEF7E0F9401B022801D9032077E6394849
:1039500010380068C0F300200028F1D100BF2078A3
:1039600000F00800082836D16069D0B131486430D1
:10397000006840F001002F4964310860FEF7C2F989
:10398000054606E0FEF7BEF9401B022801D90320D8
:1039900055E6284864300068C0F340000028F1D0A4
:1039A00019E024486430006820F0010021496431A6
:1039B0000860FEF7A7F9054606E0FEF7A3F9401BED
:1039C000022801D903203AE61A4864300068C0F39F
:1039D00040000028F1D1207800F02000202838D1C4
:1039E000A069D0B113481038006840F480501149E4
:1039F00010390860FEF786F9054606E0FEF782F901
:103A0000401B022801D9032019E60A481038006833
:103A1000C0F340300028F1D01BE0064810380068A1
:103A200020F48050034910390860FEF76BF9054611
:103A300009E0000010440258FEF764F9401B022818
:103A400001D90320FBE5D0480068C0F340300028CE
:103A5000F2D1207800F0040004287DD1CB48006822
:103A600040F48070C9490860FEF74CF9054606E04D
:103A7000FEF748F9401B642801D90320DFE5C3485D
:103A8000006800F480700028F2D000BFA068012810
:103A900008D1BD487030006840F00100BA4970316B
:103AA00008602DE0A06868B9B7487030006820F061
:103AB0000100B549703108600846006820F0040034
:103AC00008601DE0A06805280DD1AF48703000687F
:103AD00040F00400AC49703108600846006840F0CE
:103AE000010008600CE0A8487030006820F0010078
:103AF000A549703108600846006820F0040008609D
:103B000000BFA068A0B1FEF7FDF8054608E0FEF78B
:103B1000F9F8401B41F28831884201D903208EE533
:103B2000994870300068C0F340000028EFD013E0DF
:103B3000FEF7E8F8054608E0FEF7E4F8401B41F21E
:103B40008831884201D9032079E58F4870300068B8
:103B5000C0F340000028EFD1606A00287DD08A4879
:103B60001030006800F03800182877D0606A02280A
:103B700075D18548006820F0807083490860FEF7A1
:103B8000C1F8054606E0FEF7BDF8401B022801D942
:103B9000032054E57C480068C0F340600028F2D15F
:103BA00000BFD4E90A1041EA0010774928310968BA
:103BB00040F2F33291430843734928310860208E64
:103BC000401EC0F30800616B491E4FF47E4202EABA
:103BD00041210843218F491ED20102EA01410843D5
:103BE0003C21095D491E120202EA0161084366494F
:103BF0003031086000BF081F006820F00100091F75
:103C000008606148343000684FF6F8718843A16C51
:103C100040EAC1005C49343108605B482C300068E0
:103C200020F00C00216C084357492C3108600846ED
:103C3000006820F00200616C084353492C31086091
:103C40000846006840F4803008600846006840F488
:103C5000003008600846006802E092E038E01FE0AB
:103C600040F4802008600846006840F001000860C9
:103C70004548006840F0807043490860FEF742F80C
:103C8000054606E0FEF73EF8401B022801D9032056
:103C9000D5E43D480068C0F340600028F2D070E0F1
:103CA0003948006820F0807037490860FEF72AF82C
:103CB000054606E0FEF726F8401B022801D903203E
:103CC000BDE431480068C0F340600028F2D158E0FC
:103CD0002D48283007682C4830300668606A012873
:103CE00021D007F00301A06A81421CD1C7F305115E
:103CF000E06A884217D1C6F30801206B401E81425A
:103D000011D1606B401EC6F3462188420BD1A06BD7
:103D1000401EC6F30641884205D1E06B401EC6F343
:103D20000661884201D0012089E4174834300068D8
:103D3000C0F3CC07A06CB84223D013482C300068E5
:103D400020F0010010492C310860FDF7DBFF05462B
:103D500000BFFDF7D7FF401BFBD00B483430006895
:103D60004FF6F8718843A16C40EAC100064934312E
:103D7000086005482C30006840F0010002492C31F1
:103D8000086000205BE4000000440258004802582C
:103D900070477047704770477047000070B5044621
:103DA000E56A2068406BC0F3C03030B105F0080010
:103DB00018B1204600F000FF26E12068406BC0F3F8
:103DC0000020002876D04FF4807021688863206836
:103DD000C06B4CF23A1188432168C8632068C06BFD
:103DE00020F080502168C8632068C06820F040003F
:103DF0002168C86005F0080030B305F0020010B972
:103E000005F0200050B1206800F0A6FD06462EB156
:103E1000606B304360632046FFF7BEFF7B4821683C
:103E20008863012084F830000020E06205F0010082
:103E300010B905F0020018B1204600F0E9F8E3E0FF
:103E4000204600F0F3F8DFE005F080000028B3D052
:103E50000020216888622168C8622168086505F031
:103E6000020010B905F0200050B1206800F074FD88
:103E700006462EB1606B304360632046FFF78CFF2F
:103E8000012084F830000020E06205F0100010B935
:103E900005F0200010B1204600F0C8F805F0010040
:103EA00018B905F00200002886D0204600F0B0F8CE
:103EB000AAE0FFE72068406BC0F3803030B105F026
:103EC000080018B1204600F098FE9DE02068406B85
:103ED00000F03A0008B1012000E00020002870D076
:103EE0002068406BC0F3400018B1606B40F00200E6
:103EF00060632068406BC0F3C00018B1606B40F095
:103F0000080060632068406BC0F3401018B1606B1C
:103F100040F0200060632068406BC0F3001018B1CF
:103F2000606B40F010006063384821688863206847
:103F3000C06B20F49D702168C8632068C06820F0C1
:103F400040002168C8602068C06A40F400502168C1
:103F5000C8622068C06840F080002168C86020689E
:103F600000F0FAFC616B084360632068C06820F0D1
:103F700080002168C8604FF400602168886305F004
:103F8000080040B1012084F830000020E0622046A3
:103F9000FFF702FF38E005F0800030B3606B20B31C
:103FA0002068C06B20F080502168C8630020216821
:103FB0000865012084F830002046FFF7EDFE23E07D
:103FC000FFE72068406BC0F3007070B14FF0805085
:103FD000216888632068006D00F0040050B905F086
:103FE000200018B12046FFF7D6FE0DE02046FFF76F
:103FF000D0FE09E005F0200018B12046FFF7CAFE08
:1040000002E02046FFF7C4FE70BD00003A0F001822
:1040100010B5044604498C4201D0012100E0002182
:104020000846FCF71AFF10BD9019002410B504468D
:1040300004498C4201D0012100E000210846FCF730
:104040000DFF10BD9019002470B504462546681E6A
:10405000B0F1807F01D301200FE0681E4FF0E02116
:1040600048610F214FF0FF3001F0E8FB00204FF0D6
:10407000E021886107200861002070BD014600BF73
:1040800091F88400012801D102207047012081F8B5
:10409000840000BF2420C1F888000868026808680E
:1040A000006820F001000B68186022F00052002028
:1040B0004866086802602020C1F8880000BF002020
:1040C00081F8840000BF00BFDFE770B504460D46ED
:1040D00000BF94F88400012801D1022070BD0120A6
:1040E00084F8840000BF2420C4F888002068066893
:1040F0002068006820F0010021680860206880685E
:1041000020F06060284321688860204600F080FE2F
:10411000206806602020C4F8880000BF002084F8D2
:10412000840000BF00BFD9E770B504460D4600BF4C
:1041300094F88400012801D1022070BD012084F888
:10414000840000BF2420C4F8880020680668206826
:10415000006820F00100216808602068806820F075
:104160006040284321688860204600F051FE2068A6
:1041700006602020C4F8880000BF002084F8840076
:1041800000BF00BFD9E710B504460CB9012010BD2F
:10419000A06900B100E000BFD4F8880028B9002071
:1041A00084F88400204600F02BF82420C4F888000E
:1041B0002068006820F0010021680860204600F0B7
:1041C0007BFF012800D1E2E7A06A10B1204600F091
:1041D0004BFE2068406820F49040216848602068C9
:1041E000806820F02A00216888602068006840F01C
:1041F000010021680860204600F0B2FEC7E7000019
:1042000010B586B00446142101A8FCF7B3F8234981
:104210002068884240D100BF2148006840F010006B
:104220001F4908600846006800F01000009000BFB9
:1042300000BF00BF1A481038006840F0010018495C
:10424000103908600846006800F00100009000BFC7
:1042500000BF00BF0846006840F001000860084643
:10426000006800F00100009000BF00BF4FF4007034
:104270000190022002900120039003200490072067
:10428000059001A90748FDF735FC4FF480600190C7
:1042900001A90448FDF72EFC06B010BD0010014036
:1042A000F0440258000002582DE9F84F04460E462B
:1042B00017469946D4F88800202854D106B117B97A
:1042C0000120BDE8F88F00205434E06321206063B2
:1042D000FDF718FD824627806780543CA068B0F542
:1042E000805F04D1206910B90025B04602E0354650
:1042F0004FF0000820E05346002280212046CDF8F0
:10430000009001F0EDF920B12020C4F888000320CE
:10431000D7E745B9B8F80000C0F308002168886203
:1043200008F1020803E02878216888626D1CB4F85F
:104330005600401EA4F85600B4F856000028DAD102
:104340005346002240212046CDF8009001F0C8F9E4
:1043500020B12020C4F888000320B2E72020C4F850
:1043600088000020ADE70220ABE700BFFEE70000B9
:1043700000B587B0142102A8FBF7FCFF00BF0F486F
:10438000006840F040000D4908600846006800F0F1
:104390004000019000BF00BF002280210848FDF7C7
:1043A000ABFC802002900120039000200490059037
:1043B00002A90348FDF79EFB07B000BDE044025888
:1043C0000018025870B54CA001F008FA55A001F091
:1043D00005FA00241CE0214660A001F0FFF9002549
:1043E00010E0634800EBC40000EB850090ED001A7C
:1043F000B7EEC11AB0EE410B53EC102B5DA001F0EB
:10440000EDF96D1C022DECDB45A001F0E7F9641C11
:104410001E2CE0DB59A001F0E1F900241CE021464C
:1044200064A001F0DBF9002510E0674800EB840090
:1044300000EB850090ED001AB7EEC11AB0EE410B0B
:1044400053EC102B4BA001F0C9F96D1C012DECDBD6
:1044500033A001F0C3F9641C1E2CE0DB5BA001F06B
:10446000BDF900241CE0214665A001F0B7F9002544
:1044700010E0674800EBC40000EB850090ED001AE7
:10448000B7EEC11AB0EE410B53EC102B39A001F07E
:10449000A5F96D1C022DECDB21A001F09FF9641C35
:1044A0000A2CE0DB5BA001F099F900241CE0214616
:1044B00065A001F093F9002510E0674800EB840047
:1044C00000EB850090ED001AB7EEC11AB0EE410B7B
:1044D00053EC102B27A001F081F96D1C012DECDBB2
:1044E0000FA001F07BF9641C0A2CE0DB5BA001F05B
:1044F00075F9002070BD00005B4750525F53504378
:104500005D203A204C6F6164696E6720646174615C
:104510002066726F6D20534420636172642E2E2ECC
:104520000A0000005B4750525F5350435D203A2021
:10453000494E5F545241494E206C6F61646564215D
:10454000202863757272656E746C7920686172647C
:1045500020636F646564290A00000000494E5F54BF
:104560005241494E5B2533645D203D200000000030
:10457000140000242539662C200000005B475052AF
:104580005F5350435D203A204F55545F5452414988
:104590004E206C6F616465642120286375727265BA
:1045A0006E746C79206861726420636F646564293D
:1045B0000A0000004F55545F545241494E5B253369
:1045C000645D203D20000000040100245B47505240
:1045D0005F5350435D203A20494E5F50524544207E
:1045E0006C6F6164656421202863757272656E74F6
:1045F0006C79206861726420636F646564290A00C5
:10460000494E5F505245445B2533645D203D200098
:104610007C0100245B4750525F5350435D203A2099
:104620004F55545F4754206C6F61646564212028A6
:1046300063757272656E746C792068617264206350
:104640006F646564290A00004F55545F47545B2529
:1046500033645D203D200000CC0100245B475052B4
:104660005F5350435D203A2044617461206C6F6158
:10467000646564210A00000000BFFEE700BFFEE79A
:10468000704700002DE9F04104460E4600275548CA
:10469000006800F00300032802D10120BDE8F0818A
:1046A00050482838006820F080604E49283908605A
:1046B000FDF728FB054606E0FDF724FB401B02281A
:1046C00001D90320EAE7474828380068C0F3C060F2
:1046D0000028F1D100BF4348006820F47C302168F5
:1046E00040EA01303F490860A088401EC0F308003E
:1046F000A168491E4FF47E4202EA41210843A18984
:10470000491ED20102EA01410843217C491E1202DE
:1047100002EA0161084333491031086000BF3148A3
:10472000001D006820F0C000616908432D49091D83
:1047300008600846006820F02000A1690843294964
:10474000091D08600846006820F010000860254830
:10475000143000684FF6F8718843E16940EAC100FF
:104760002049143108601F48001D006840F0100007
:104770001C49091D08602EB90846006840F4002055
:10478000086012E0012E08D11648001D006840F4B0
:1047900080101449091D086007E01248001D0068D8
:1047A00040F400100F49091D08600E4828380068C1
:1047B00040F080600B4928390860FDF7A3FA0546F0
:1047C00006E0FDF79FFA401B022801D9032065E7A8
:1047D000044828380068C0F3C0600028F1D038468B
:1047E0005CE70000284402582DE9F04104460E46DB
:1047F00000275548006800F00300032802D101207B
:10480000BDE8F08150482838006820F080504E49BB
:1048100028390860FDF776FA054606E0FDF772FADA
:10482000401B022801D90320EAE7474828380068DE
:10483000C0F340700028F1D100BF4348006820F069
:104840007C70218840EA01503F490860A088401EE2
:10485000C0F30800A168491E4FF47E4202EA4121DC
:104860000843A189491ED20102EA01410843217C83
:10487000491E120202EA01610843334918310860F7
:1048800000BF3148001D006820F4406061690843A2
:104890002D49091D08600846006820F40070A169D0
:1048A00008432949091D08600846006820F4807003
:1048B000086025481C3000684FF6F8718843E169AC
:1048C00040EAC10020491C3108601F48001D0068F3
:1048D00040F480701C49091D08602EB90846006824
:1048E00040F48000086012E0012E08D11648001D37
:1048F000006840F400001449091D086007E01248F0
:10490000001D006840F080700F49091D08600E48C6
:104910002838006840F080500B4928390860FDF7BE
:10492000F1F9054606E0FDF7EDF9401B022801D933
:10493000032065E7044828380068C0F34070002869
:10494000F1D038465CE700002844025810B500203A
:10495000FFF724FA10BD000030B585B004460020F2
:1049600000900C2001904FF4807002900020039082
:104970004FF480500490E06840F08000E060E06810
:1049800020F04000E0606946204600F0F9F8084A4F
:104990000C21204600F00EF80546E06820F080006B
:1049A000E060B5F1007F00D10025284605B030BD9C
:1049B00000E1F5052DE9F04305460F4690466648AF
:1049C0000068C0084FF47A71B0FBF1F000FB08F901
:1049D00000BFB9F10000A9F1010903D14FF0004077
:1049E000BDE8F0836E6B5D4830400028F1D006F4DE
:1049F00000500028EDD1686B00F0040010B10420D5
:104A0000A863EDE7686B00F0010010B10120A86316
:104A1000E6E752488030A863284600F0A3F8B84281
:104A200001D00120DCE70021284600F09FF8044671
:104A30004B48204008B90020D2E704F00040B0F114
:104A4000004F02D14FF00070CAE704F08040B0F18F
:104A5000804F01D14020C3E704F00050B0F1005F67
:104A600001D18020BCE704F08050B0F1805F02D11A
:104A70004FF48070B4E704F00060B0F1006F02D131
:104A80004FF40070ACE704F08060B0F1806F02D1A9
:104A90004FF48060A4E704F08070B0F1807F02D111
:104AA0004FF400609CE704F40000B0F5000F02D161
:104AB0004FF4805094E704F48000B0F5800F02D1E9
:104AC0004FF400508CE704F40010B0F5001F02D141
:104AD0004FF4804084E704F48010B0F5801F02D1C9
:104AE0004FF400407CE704F48020B0F5802F02D121
:104AF0004FF4003074E704F40030B0F5003F02D109
:104B00004FF480206CE704F48030B0F5803F02D190
:104B10004FF4002064E704F40040B0F5004F02D1E8
:104B20004FF480105CE704F48040B0F5804F02D170
:104B30004FF4001054E704F40050B0F5005F02D1C8
:104B40004FF480004CE704F00800082801D100056C
:104B500046E74FF4803043E7CC02002445002000B4
:104B600008E0FFFD01460869C0B27047024602F145
:104B700014004318186870470146D1F88000704748
:104B800010B50246002308689060D1E90104204373
:104B9000CC6820430C6920430343D068024C20407A
:104BA0001843D060002010BDC0E0FEFF0246086838
:104BB000C2F88000002070472DE9F04105466C6A7C
:104BC000A86A202817D300270FE02868FFF7D4FF32
:104BD00006462670641C300A2070641C300C20705D
:104BE000641C300E2070641C7F1C082FEDD36C6297
:104BF000A86A2038A862BDE8F081F8B50546EC69DE
:104C0000286A202821D3002619E020780090641C0F
:104C10002078009941EA00200090641C20780099D7
:104C200041EA00400090641C2078009941EA00604D
:104C30000090641C69462868FFF7B8FF761C082EB0
:104C4000E3D3EC61286A20382862F8BD704710B5BC
:104C5000FDF75EF810BD000000B5CBB04C2138A8C0
:104C6000FBF788FB202130A8FBF784FBB82102A8C2
:104C7000FBF780FB0220FDF717F900BF0020019031
:104C80002A48006820F44040284908600846006827
:104C900000F44040019000BF00BF00BF23480068FF
:104CA00000F40050B0F5005FF8D101203890000406
:104CB000399002204190022138A881620A21C16204
:104CC000DC21016301214163052181630221C1636C
:104CD00004210164002141648164FEF7ABFC08B14A
:104CE000FCF7C0F83F203090032031900020329034
:104CF00008203390402034903590000136904020B9
:104D00003790032130A8FEF7A5F908B1FCF7AAF8FF
:104D10004FF480310020CDE90210169002A8FDF773
:104D200035FB08B1FCF79EF84BB000BD184802589F
:104D30002F48006840F470002D4908602D48006835
:104D400000F00F00072806D22A48006820F00F0064
:104D5000C01D284908602848006840F00100264925
:104D60000860002024491031086023480068234966
:104D70000840214908601F48006800F00F0007281C
:104D800006D91C48006820F00F00C01D19490860B2
:104D90000020194918310860091D0860091D0860C4
:104DA00017481549283108601648091D086016483B
:104DB000091D08600020091D08601348091D0860CE
:104DC0000020091D08601048091D08600020091D09
:104DD00008600948006820F4802007490860002026
:104DE00005496031086043F2D20008490860704705
:104DF00088ED00E000200052004402587FEDF6EA02
:104E0000000202020000FF01800201010040005286
:104E100070B5456E2DB90125A0F86A50A0F868500C
:104E20001CE0102310240568AD68C5F342610568D5
:104E3000AD686A0F0A4DAD5C15FB04F5094EB65C12
:104E400095FBF6F5A0F86A50054D6D5C15FB03F572
:104E5000044E765C95FBF6F5A0F8685070BD000036
:104E6000046700080C67000890F8281001F00101A1
:104E700039B10168496821F40031C26A11430268FE
:104E8000516090F8281001F00201022907D1016851
:104E9000496821F48031026B11430268516090F837
:104EA000281001F00401042907D10168496821F4A0
:104EB0008021426B11430268516090F8281001F084
:104EC0000801082907D10168496821F40041826B73
:104ED00011430268516090F8281001F01001102968
:104EE00007D10168896821F48051C26B11430268BF
:104EF000916090F8281001F02001202907D1016865
:104F0000896821F40051026C11430268916090F8A5
:104F1000281001F04001402913D10168496821F4AB
:104F20008011426C114302685160416CB1F5801FE1
:104F300007D10168496821F4C001826C11430268FD
:104F4000516090F8281001F08001802907D1016894
:104F5000496821F40021C26C114302685160704716
:104F600038B504460020C4F89000FCF7CBFE054697
:104F70002068006800F00800082821D16FF07E400A
:104F80002B4600224FF400110090204600F0A8FBB1
:104F9000B0B100BF00BF216851E8001F21F08000C0
:104FA000226842E800010029F5D100BF2020C4F8A2
:104FB000880000BF002084F8840000BF032038BDB3
:104FC0002068006800F00400042830D16FF07E40B3
:104FD0002B4600224FF480010090204600F080FB19
:104FE00028B300BF00BF216851E8001F21F4907072
:104FF000226842E800010029F5D100BF00BF00BFD0
:105000002168083151E8001F21F0010021680831B2
:1050100041E80002002AF3D100BF2020C4F88C0030
:1050200000BF002084F8840000BF0320C7E72020D1
:10503000C4F88800C4F88C000020E066206700BF38
:1050400084F8840000BF00BFB9E7000000BF00BFC4
:10505000026852E8002F22F49071036843E80012BE
:10506000002AF5D100BF00BF00BF0268083252E835
:10507000002F104B02EA03010268083242E80013D5
:10508000002BF2D100BFC16E01290CD100BF00BFBF
:10509000026852E8002F22F01001036843E8001272
:1050A000002AF5D100BF2021C0F88C100021C16674
:1050B00041677047FEFFFFEF2DE9F04F89B00546CD
:1050C00000200890F8492868884200D100E000BF1D
:1050D0002969A868084369690843E96940EA010841
:1050E00028680068F149084040EA0800296808601B
:1050F0002868406820F44050E968084329684860FF
:10510000D5F81880E8492868884202D0286A40EA21
:10511000080828688068E649084040EA08002968CD
:1051200088602868C06A20F00F00696A084329680F
:10513000C86200BFDF492868884220D1DE48006885
:1051400000F03800182811D005DC48B1082809D033
:10515000102811D108E020280AD028280CD109E015
:1051600001240BE0042409E0082407E0102405E0F2
:10517000202403E0402401E0802400BF42E1CF4925
:105180002868884219D1CC48006800F0070006283A
:1051900010D2DFE800F0030507090B0D00240BE037
:1051A000042409E0082407E0102405E0202403E09B
:1051B000402401E0802400BF24E1C14928688842DE
:1051C00019D1BD48006800F00700062810D2DFE8BA
:1051D00000F0030507090B0D00240BE0042409E08F
:1051E000082407E0102405E0202403E0402401E027
:1051F000802400BF06E1B3492868884219D1AE482F
:10520000006800F00700062810D2DFE800F0030570
:1052100007090B0D00240BE0042409E0082407E033
:10522000102405E0202403E0402401E0802400BF96
:10523000E8E0A5492868884219D19F48006800F035
:105240000700062810D2DFE800F0030507090B0D60
:1052500000240BE0042409E0082407E0102405E002
:10526000202403E0402401E0802400BFCAE09749E5
:105270002868884220D19048006800F0380018283B
:1052800011D005DC48B1082809D0102811D108E058
:1052900020280AD028280CD109E001240BE004249E
:1052A00009E0082407E0102405E0202403E040245E
:1052B00001E0802400BFA5E085492868884219D113
:1052C0007D48006800F00700062810D2DFE800F0F3
:1052D000030507090B0D00240BE0042409E0082452
:1052E00007E0102405E0202403E0402401E08024AE
:1052F00000BF87E077492868884219D16E48006866
:1053000000F00700062810D2DFE800F003050709C7
:105310000B0D00240BE0042409E0082407E010240E
:1053200005E0202403E0402401E0802400BF69E080
:1053300069492868884220D15F48006800F0380039
:10534000182811D005DC48B1082809D0102811D13F
:1053500008E020280AD028280CD109E001240BE01D
:10536000042409E0082407E0102405E0202403E0D9
:10537000402401E0802400BF44E058492868884266
:1053800020D14D48006800F03800182811D005DC05
:1053900048B1082809D0102811D108E020280AD0E7
:1053A00028280CD109E001240BE0042409E008249A
:1053B00007E0102405E0202403E0402401E08024DD
:1053C00000BF1FE03849286888421AD13A48001DBA
:1053D000006800F00700062810D2DFE800F003059F
:1053E00007090B0D02240BE0042409E0082407E060
:1053F000102405E0202403E0402401E0802400BFC5
:1054000000E0802400BF2849286888424BD1102C36
:105410001AD006DC022C09D0042C0BD0082C29D180
:105420000DE0202C21D0402C24D120E0FCF76CFD95
:10543000064623E005A8FCF779FD069E1EE002A8BB
:10544000FCF78CFE039E19E01B4854380068C0F33B
:10545000401040B1184854380068C0F3C1012048DA
:1054600020FA01F600E01E4E08E01E4E06E04FF462
:10547000004603E000260120089000BF00BF002E78
:1054800010D01949686A31F81000B6FBF0F9686865
:1054900000EB4000484503D868680003484525D222
:1054A0000120089007E153E0000C0058F369FFCF9A
:1054B000FFF4FF1100100140544402580044004022
:1054C00000480040004C00400050004000140140E3
:1054D00000780040007C004000180140001C0140A2
:1054E0000090D00300093D00EC6600087849686A26
:1054F00031F810C06246002330461946FAF702FF21
:105500004FF4807C00220346A3FB0C0B01FB0CB183
:1055100003FB02136968490884461CEB010143EB55
:105520000200CDE90010D5F804C062460023084609
:105530000199FAF7E7FE0746B7F5407F05D3B7F5BF
:10554000801F02D22868C760B5E001200890B2E051
:10555000E869B0F5004F5BD1082C1AD005DC5CB1CE
:10556000012C0DD0042C2DD10EE0102C16D0202CA7
:1055700023D0402C26D122E0FDF722FF064625E06D
:10558000FDF730FF064621E005A8FCF7CFFC069E9C
:105590001CE002A8FCF7E2FD039E17E04D480068FE
:1055A000C0F3401038B14B480068C0F3C1014A480D
:1055B00020FA01F600E0484E08E0484E06E04FF4BD
:1055C000004603E000260120089000BF00BF7EB324
:1055D0003F49686A31F81000B6FBF0F04000696896
:1055E00000EB5100B0FBF1F7102F0ED3B7F5803F61
:1055F0000BD24FF6F07007EA000AC7F342004AEAFE
:10560000000A2868C0F80CA055E00120089052E07C
:10561000082C1BD005DC64B1012C0ED0042C2ED13B
:105620000FE0102C17D0202C24D0402C27D123E0C1
:1056300041E0FDF7C5FE064625E0FDF7D3FE064630
:1056400021E005A8FCF772FC069E1CE002A8FCF70E
:1056500085FD039E17E01F480068C0F3401038B175
:105660001C480068C0F3C1011B4820FA01F600E0A5
:10567000194E08E0194E06E04FF4004603E00026FC
:105680000120089000BF00BFAEB11149686A31F82F
:105690001000B6FBF0F0696800EB5100B0FBF1F7C9
:1056A000102F06D3B7F5803F03D2B8B22968C8607F
:1056B00001E0012008900120A5F86A00A5F8680023
:1056C00000206867A867089809B0BDE8F08F00005F
:1056D000EC660008004402580090D00300093D0029
:1056E0002DE9F04104460D4617469846069E3CE0DB
:1056F000701CC8B3FCF706FBA0EB0800B04200D852
:1057000016B90320BDE8F0812068006800F00400AD
:1057100050B32068C069C0F3C00078B10820216888
:1057200008622046FFF792FC0820C4F8900000BFF2
:10573000002084F8840000BF0120E3E72068C069EE
:10574000C0F3C02080B14FF4006021680862204699
:10575000FFF77CFC2020C4F8900000BF002084F8F4
:10576000840000BF0320CDE7FFE72068C069284020
:10577000A84201D1012000E00020B842B8D00020AA
:10578000C0E7000010B51248124908604FF4E1303C
:10579000486000210F488160C16001610C214161B6
:1057A00000218161C1610162416200200949886272
:1057B0000846FEF7E8FC00210648FEF7B5FC00218C
:1057C0000448FEF782FC0348FEF758FC10BD0000B9
:1057D00000100140FC18002400BFFEE70FB4054B89
:1057E00010B503A9044A029800F0D2FA10BC5DF883
:1057F00014FB0000C1640008D402002403B4019823
:105800004100009850EAC12018BF04204A0D18BF7B
:1058100040F0010040F2FF72B2EB515F08BF40F070
:105820000200012808BF052002B070470248006846
:10583000C0F30220704700000CED00E010B5002816
:1058400004DB0A07130E054A135406E00A07140E78
:10585000034A00F00F031B1FD45410BD00E400E006
:1058600018ED00E00000000010B5794A2DED020BA4
:105870002DED088B82B00B99C80F21F000419142A9
:1058800042D3744A8A4219D80A9AC1F313011143C8
:1058900009D09DED0A0B02B0BDEC088B02B0BDE84B
:1058A000104000F080B9002814BF9FED6B0B9DEDF8
:1058B0000A0B02B0BDEC088B02B010BD9DED0A0BC7
:1058C0009FED671BB4EEC10BF1EE10FA0ADD02206A
:1058D00000F096F902B0BDEC088B02B0BDE81040B4
:1058E00000F066B99FED601BB4EEC10BF1EE10FA4B
:1058F0000AD2022000F084F902B0BDEC088B02B09D
:10590000BDE8104000F060B9594A9FED5B9B8A42A8
:1059100039D25B4A914213D25A49794401EBC00112
:105920009DED0A1B91ED000B574931EE408B7944F8
:1059300001EBC00191ED00ABC0F101010C1A1DE0BB
:105940005249794401EBC0009DED0A1B90ED000B1C
:105950009FED4F2B9DED0A8B01EE020BBDEEC00BB0
:1059600010EE104A00EE104AB8EEC00B9FED4A1B35
:1059700000EE418B9FED4A1B20EE01AB38EE4A0B47
:105980008DED0A0B15E0484888420FD99DED0A0BB2
:105990009FED471B30EE010BB4EEC90BF1EE10FA90
:1059A000C4BF9DED0A0B30EE090B82DC9DED0A0BA6
:1059B00000244148052120EE00BBB0EE4B0B78449B
:1059C00000F0B9F89DED0A1B9DED0A2B0BEE401B74
:1059D0009FED3B0B22EE012BBCB130EE411B6FF46F
:1059E0007F70844282EE010B3AEE400B30EE480BA2
:1059F00039EE400B10EE900A8DED000B10DB00EB42
:105A0000045001909DED000B53E731EE401B82EEF8
:105A1000010B9DED0A1B30EE410B39EE400B48E7C0
:105A20004FF07A5101EB0451084401909DED001BA9
:105A30009FED250B21EE008B51EC180BFFF7DEFEDE
:105A4000042808BF00F0C0F8B0EE480B31E70000B2
:105A5000422E86400000F07F0000000000000000A1
:105A6000EF39FAFE422E864051302DD5104987C0BD
:105A7000422ED63F00000000000000000000F03F72
:105A8000B2A2F03F1A0E0000160E0000E20D000058
:105A9000FE822B654715F73F0000E0FE422EE63FF1
:105AA000763C7935EF39EA3D0000303E00000000D9
:105AB0009C7500883CE4377E960D000000000000D5
:105AC0000000000000000040000000000000700125
:105AD00000B52DED028BB1EEC08B83B018EE100A2D
